{
  "_format": "hh-sol-artifact-1",
  "contractName": "DataVault",
  "sourceName": "contracts/DataVault.sol",
  "abi": [
    {
      "anonymous": false,
      "inputs": [
        {
          "indexed": true,
          "internalType": "address",
          "name": "sender",
          "type": "address"
        },
        {
          "indexed": true,
          "internalType": "uint256",
          "name": "id",
          "type": "uint256"
        },
        {
          "indexed": false,
          "internalType": "string",
          "name": "content",
          "type": "string"
        },
        {
          "indexed": false,
          "internalType": "uint256",
          "name": "timestamp",
          "type": "uint256"
        }
      ],
      "name": "DataWritten",
      "type": "event"
    },
    {
      "anonymous": false,
      "inputs": [
        {
          "indexed": true,
          "internalType": "address",
          "name": "sender",
          "type": "address"
        },
        {
          "indexed": true,
          "internalType": "address",
          "name": "to",
          "type": "address"
        },
        {
          "indexed": false,
          "internalType": "uint256",
          "name": "amount",
          "type": "uint256"
        },
        {
          "indexed": false,
          "internalType": "uint256",
          "name": "timestamp",
          "type": "uint256"
        }
      ],
      "name": "EthTransferred",
      "type": "event"
    },
    {
      "inputs": [],
      "name": "counter",
      "outputs": [
        {
          "internalType": "uint256",
          "name": "",
          "type": "uint256"
        }
      ],
      "stateMutability": "view",
      "type": "function"
    },
    {
      "inputs": [
        {
          "internalType": "address payable",
          "name": "to",
          "type": "address"
        }
      ],
      "name": "transferEth",
      "outputs": [],
      "stateMutability": "payable",
      "type": "function"
    },
    {
      "inputs": [
        {
          "internalType": "string",
          "name": "content",
          "type": "string"
        }
      ],
      "name": "writeData",
      "outputs": [],
      "stateMutability": "nonpayable",
      "type": "function"
    }
  ],
  "bytecode": "0x608060405234801561001057600080fd5b5061054e806100206000396000f3fe6080604052600436106100345760003560e01c8063134bc8761461003957806330df47af1461006257806361bc221a1461007e575b600080fd5b34801561004557600080fd5b50610060600480360381019061005b9190610284565b6100a9565b005b61007c6004803603810190610077919061032f565b61011b565b005b34801561008a57600080fd5b5061009361020f565b6040516100a09190610375565b60405180910390f35b60016000808282546100bb91906103bf565b925050819055506000543373ffffffffffffffffffffffffffffffffffffffff167fc9b9bae03505108beef869ffc43a4a81a3f36cf318ce45010129e04e7497a9ba84844260405161010f93929190610451565b60405180910390a35050565b6000341161015e576040517f08c379a0000000000000000000000000000000000000000000000000000000008152600401610155906104cf565b60405180910390fd5b8073ffffffffffffffffffffffffffffffffffffffff166108fc349081150290604051600060405180830381858888f193505050501580156101a4573d6000803e3d6000fd5b508073ffffffffffffffffffffffffffffffffffffffff163373ffffffffffffffffffffffffffffffffffffffff167f35a16817dadc35c23b4a7e9809b4b2ea9369a08191f45f6438592c5e9d6818c334426040516102049291906104ef565b60405180910390a350565b60005481565b600080fd5b600080fd5b600080fd5b600080fd5b600080fd5b60008083601f8401126102445761024361021f565b5b8235905067ffffffffffffffff81111561026157610260610224565b5b60208301915083600182028301111561027d5761027c610229565b5b9250929050565b6000806020838503121561029b5761029a610215565b5b600083013567ffffffffffffffff8111156102b9576102b861021a565b5b6102c58582860161022e565b92509250509250929050565b600073ffffffffffffffffffffffffffffffffffffffff82169050919050565b60006102fc826102d1565b9050919050565b61030c816102f1565b811461031757600080fd5b50565b60008135905061032981610303565b92915050565b60006020828403121561034557610344610215565b5b60006103538482850161031a565b91505092915050565b6000819050919050565b61036f8161035c565b82525050565b600060208201905061038a6000830184610366565b92915050565b7f4e487b7100000000000000000000000000000000000000000000000000000000600052601160045260246000fd5b60006103ca8261035c565b91506103d58361035c565b92508282019050808211156103ed576103ec610390565b5b92915050565b600082825260208201905092915050565b82818337600083830152505050565b6000601f19601f8301169050919050565b600061043083856103f3565b935061043d838584610404565b61044683610413565b840190509392505050565b6000604082019050818103600083015261046c818587610424565b905061047b6020830184610366565b949350505050565b7f4e6f204554482073656e74000000000000000000000000000000000000000000600082015250565b60006104b9600b836103f3565b91506104c482610483565b602082019050919050565b600060208201905081810360008301526104e8816104ac565b9050919050565b60006040820190506105046000830185610366565b6105116020830184610366565b939250505056fea2646970667358221220ee5e3f74a78fa0c801e516d27723f84b956ee6e764db06458ff24984a11cbde664736f6c63430008180033",
  "linkReferences": {},
  "deployedLinkReferences": {}
}